{
  "contractName": "UniCraft",
  "abi": [
    {
      "constant": true,
      "inputs": [
        {
          "name": "",
          "type": "bytes32"
        }
      ],
      "name": "artisans",
      "outputs": [
        {
          "name": "name",
          "type": "bytes"
        },
        {
          "name": "addr",
          "type": "address"
        },
        {
          "name": "ssn",
          "type": "bytes"
        }
      ],
      "payable": false,
      "stateMutability": "view",
      "type": "function"
    },
    {
      "constant": true,
      "inputs": [
        {
          "name": "",
          "type": "bytes32"
        }
      ],
      "name": "products",
      "outputs": [
        {
          "name": "artisanId",
          "type": "bytes32"
        },
        {
          "name": "coopProvince",
          "type": "bytes"
        },
        {
          "name": "dateMade",
          "type": "uint256"
        },
        {
          "name": "fiber",
          "type": "bytes"
        },
        {
          "name": "soldDate",
          "type": "uint256"
        },
        {
          "name": "compellingStoryUri",
          "type": "bytes"
        },
        {
          "name": "userStory",
          "type": "bytes"
        },
        {
          "name": "owner",
          "type": "address"
        }
      ],
      "payable": false,
      "stateMutability": "view",
      "type": "function"
    },
    {
      "constant": true,
      "inputs": [],
      "name": "owner",
      "outputs": [
        {
          "name": "",
          "type": "address"
        }
      ],
      "payable": false,
      "stateMutability": "view",
      "type": "function"
    },
    {
      "constant": false,
      "inputs": [
        {
          "name": "newOwner",
          "type": "address"
        }
      ],
      "name": "transferOwnership",
      "outputs": [],
      "payable": false,
      "stateMutability": "nonpayable",
      "type": "function"
    },
    {
      "anonymous": false,
      "inputs": [
        {
          "indexed": false,
          "name": "_id",
          "type": "bytes32"
        },
        {
          "indexed": false,
          "name": "_name",
          "type": "bytes"
        },
        {
          "indexed": false,
          "name": "_addr",
          "type": "address"
        },
        {
          "indexed": false,
          "name": "_ssn",
          "type": "bytes"
        }
      ],
      "name": "IssuerCertificate",
      "type": "event"
    },
    {
      "anonymous": false,
      "inputs": [
        {
          "indexed": false,
          "name": "_id",
          "type": "bytes32"
        },
        {
          "indexed": false,
          "name": "_artisanId",
          "type": "bytes32"
        },
        {
          "indexed": false,
          "name": "_dateMade",
          "type": "uint256"
        },
        {
          "indexed": false,
          "name": "_coopProvince",
          "type": "bytes"
        },
        {
          "indexed": false,
          "name": "_fiber",
          "type": "bytes"
        },
        {
          "indexed": false,
          "name": "_cStory",
          "type": "bytes"
        }
      ],
      "name": "CreateProduct",
      "type": "event"
    },
    {
      "anonymous": false,
      "inputs": [
        {
          "indexed": false,
          "name": "_id",
          "type": "bytes32"
        },
        {
          "indexed": false,
          "name": "buyer",
          "type": "address"
        },
        {
          "indexed": false,
          "name": "_soldDate",
          "type": "uint256"
        }
      ],
      "name": "BuyProduct",
      "type": "event"
    },
    {
      "anonymous": false,
      "inputs": [
        {
          "indexed": false,
          "name": "UserStory",
          "type": "bytes"
        }
      ],
      "name": "UserStoryAdded",
      "type": "event"
    },
    {
      "anonymous": false,
      "inputs": [
        {
          "indexed": true,
          "name": "previousOwner",
          "type": "address"
        },
        {
          "indexed": true,
          "name": "newOwner",
          "type": "address"
        }
      ],
      "name": "OwnershipTransferred",
      "type": "event"
    },
    {
      "constant": false,
      "inputs": [
        {
          "name": "_id",
          "type": "bytes32"
        },
        {
          "name": "_name",
          "type": "bytes"
        },
        {
          "name": "_addr",
          "type": "address"
        },
        {
          "name": "_ssn",
          "type": "bytes"
        }
      ],
      "name": "issuerCertificate",
      "outputs": [
        {
          "name": "",
          "type": "bool"
        }
      ],
      "payable": false,
      "stateMutability": "nonpayable",
      "type": "function"
    },
    {
      "constant": false,
      "inputs": [
        {
          "name": "_id",
          "type": "bytes32"
        },
        {
          "name": "_artisanId",
          "type": "bytes32"
        },
        {
          "name": "_coopProvince",
          "type": "bytes"
        },
        {
          "name": "_fiber",
          "type": "bytes"
        },
        {
          "name": "_cStory",
          "type": "bytes"
        }
      ],
      "name": "listProduct",
      "outputs": [
        {
          "name": "",
          "type": "bool"
        }
      ],
      "payable": false,
      "stateMutability": "nonpayable",
      "type": "function"
    },
    {
      "constant": false,
      "inputs": [
        {
          "name": "_id",
          "type": "bytes32"
        },
        {
          "name": "_userStory",
          "type": "bytes"
        }
      ],
      "name": "buyProduct",
      "outputs": [
        {
          "name": "",
          "type": "bool"
        }
      ],
      "payable": false,
      "stateMutability": "nonpayable",
      "type": "function"
    },
    {
      "constant": true,
      "inputs": [
        {
          "name": "_artisanId",
          "type": "bytes32"
        }
      ],
      "name": "getProductCount",
      "outputs": [
        {
          "name": "",
          "type": "uint256"
        }
      ],
      "payable": false,
      "stateMutability": "view",
      "type": "function"
    },
    {
      "constant": true,
      "inputs": [
        {
          "name": "_artisanId",
          "type": "bytes32"
        }
      ],
      "name": "getProductList",
      "outputs": [
        {
          "name": "",
          "type": "bytes32[]"
        }
      ],
      "payable": false,
      "stateMutability": "view",
      "type": "function"
    }
  ],
  "bytecode": "0x6080604052336000806101000a81548173ffffffffffffffffffffffffffffffffffffffff021916908373ffffffffffffffffffffffffffffffffffffffff160217905550611b89806100536000396000f300608060405260043610610099576000357c0100000000000000000000000000000000000000000000000000000000900463ffffffff16806336a496051461009e57806343cadb07146101245780635ff434eb1461016957806379054391146102b25780638da5cb5b146104f0578063cc23738214610547578063ed0f4274146105d6578063ed6c4606146106ff578063f2fde38b146107f4575b600080fd5b3480156100aa57600080fd5b506100cd6004803603810190808035600019169060200190929190505050610837565b6040518080602001828103825283818151815260200191508051906020019060200280838360005b838110156101105780820151818401526020810190506100f5565b505050509050019250505060405180910390f35b34801561013057600080fd5b5061015360048036038101908080356000191690602001909291905050506108b1565b6040518082815260200191505060405180910390f35b34801561017557600080fd5b5061019860048036038101908080356000191690602001909291905050506108dc565b60405180806020018473ffffffffffffffffffffffffffffffffffffffff1673ffffffffffffffffffffffffffffffffffffffff16815260200180602001838103835286818151815260200191508051906020019080838360005b8381101561020e5780820151818401526020810190506101f3565b50505050905090810190601f16801561023b5780820380516001836020036101000a031916815260200191505b50838103825284818151815260200191508051906020019080838360005b83811015610274578082015181840152602081019050610259565b50505050905090810190601f1680156102a15780820380516001836020036101000a031916815260200191505b509550505050505060405180910390f35b3480156102be57600080fd5b506102e16004803603810190808035600019169060200190929190505050610a56565b604051808960001916600019168152602001806020018881526020018060200187815260200180602001806020018673ffffffffffffffffffffffffffffffffffffffff1673ffffffffffffffffffffffffffffffffffffffff16815260200185810385528c818151815260200191508051906020019080838360005b8381101561037957808201518184015260208101905061035e565b50505050905090810190601f1680156103a65780820380516001836020036101000a031916815260200191505b5085810384528a818151815260200191508051906020019080838360005b838110156103df5780820151818401526020810190506103c4565b50505050905090810190601f16801561040c5780820380516001836020036101000a031916815260200191505b50858103835288818151815260200191508051906020019080838360005b8381101561044557808201518184015260208101905061042a565b50505050905090810190601f1680156104725780820380516001836020036101000a031916815260200191505b50858103825287818151815260200191508051906020019080838360005b838110156104ab578082015181840152602081019050610490565b50505050905090810190601f1680156104d85780820380516001836020036101000a031916815260200191505b509c5050505050505050505050505060405180910390f35b3480156104fc57600080fd5b50610505610d1e565b604051808273ffffffffffffffffffffffffffffffffffffffff1673ffffffffffffffffffffffffffffffffffffffff16815260200191505060405180910390f35b34801561055357600080fd5b506105bc6004803603810190808035600019169060200190929190803590602001908201803590602001908080601f0160208091040260200160405190810160405280939291908181526020018383808284378201915050505050509192919290505050610d43565b604051808215151515815260200191505060405180910390f35b3480156105e257600080fd5b506106e560048036038101908080356000191690602001909291908035600019169060200190929190803590602001908201803590602001908080601f0160208091040260200160405190810160405280939291908181526020018383808284378201915050505050509192919290803590602001908201803590602001908080601f0160208091040260200160405190810160405280939291908181526020018383808284378201915050505050509192919290803590602001908201803590602001908080601f0160208091040260200160405190810160405280939291908181526020018383808284378201915050505050509192919290505050610fc6565b604051808215151515815260200191505060405180910390f35b34801561070b57600080fd5b506107da6004803603810190808035600019169060200190929190803590602001908201803590602001908080601f0160208091040260200160405190810160405280939291908181526020018383808284378201915050505050509192919290803573ffffffffffffffffffffffffffffffffffffffff169060200190929190803590602001908201803590602001908080601f0160208091040260200160405190810160405280939291908181526020018383808284378201915050505050509192919290505050611403565b604051808215151515815260200191505060405180910390f35b34801561080057600080fd5b50610835600480360381019080803573ffffffffffffffffffffffffffffffffffffffff1690602001909291905050506117cd565b005b60606001600083600019166000191681526020019081526020016000206003018054806020026020016040519081016040528092919081815260200182805480156108a557602002820191906000526020600020905b8154600019168152602001906001019080831161088d575b50505050509050919050565b6000600160008360001916600019168152602001908152602001600020600301805490509050919050565b6001602052806000526040600020600091509050806000018054600181600116156101000203166002900480601f0160208091040260200160405190810160405280929190818152602001828054600181600116156101000203166002900480156109885780601f1061095d57610100808354040283529160200191610988565b820191906000526020600020905b81548152906001019060200180831161096b57829003601f168201915b5050505050908060010160009054906101000a900473ffffffffffffffffffffffffffffffffffffffff1690806002018054600181600116156101000203166002900480601f016020809104026020016040519081016040528092919081815260200182805460018160011615610100020316600290048015610a4c5780601f10610a2157610100808354040283529160200191610a4c565b820191906000526020600020905b815481529060010190602001808311610a2f57829003601f168201915b5050505050905083565b6002602052806000526040600020600091509050806000015490806001018054600181600116156101000203166002900480601f016020809104026020016040519081016040528092919081815260200182805460018160011615610100020316600290048015610b085780601f10610add57610100808354040283529160200191610b08565b820191906000526020600020905b815481529060010190602001808311610aeb57829003601f168201915b505050505090806002015490806003018054600181600116156101000203166002900480601f016020809104026020016040519081016040528092919081815260200182805460018160011615610100020316600290048015610bac5780601f10610b8157610100808354040283529160200191610bac565b820191906000526020600020905b815481529060010190602001808311610b8f57829003601f168201915b505050505090806004015490806005018054600181600116156101000203166002900480601f016020809104026020016040519081016040528092919081815260200182805460018160011615610100020316600290048015610c505780601f10610c2557610100808354040283529160200191610c50565b820191906000526020600020905b815481529060010190602001808311610c3357829003601f168201915b505050505090806006018054600181600116156101000203166002900480601f016020809104026020016040519081016040528092919081815260200182805460018160011615610100020316600290048015610cee5780601f10610cc357610100808354040283529160200191610cee565b820191906000526020600020905b815481529060010190602001808311610cd157829003601f168201915b5050505050908060070160009054906101000a900473ffffffffffffffffffffffffffffffffffffffff16905088565b6000809054906101000a900473ffffffffffffffffffffffffffffffffffffffff1681565b60008073ffffffffffffffffffffffffffffffffffffffff1660026000856000191660001916815260200190815260200160002060070160009054906101000a900473ffffffffffffffffffffffffffffffffffffffff1673ffffffffffffffffffffffffffffffffffffffff16141515610dbd57600080fd5b6000600102600260008560001916600019168152602001908152602001600020600001546000191614151515610df257600080fd5b3360026000856000191660001916815260200190815260200160002060070160006101000a81548173ffffffffffffffffffffffffffffffffffffffff021916908373ffffffffffffffffffffffffffffffffffffffff1602179055504260026000856000191660001916815260200190815260200160002060040181905550816002600085600019166000191681526020019081526020016000206006019080519060200190610ea4929190611922565b507f85539c7d87472debaeb8044f5dfd8b280fe37bf22c2c3742ccd8260861a256318333426040518084600019166000191681526020018373ffffffffffffffffffffffffffffffffffffffff1673ffffffffffffffffffffffffffffffffffffffff168152602001828152602001935050505060405180910390a17fc8a7c059044e0bd4f9575d881111b52e034d6a0ddcf73447a254c85dbd90e395826040518080602001828103825283818151815260200191508051906020019080838360005b83811015610f82578082015181840152602081019050610f67565b50505050905090810190601f168015610faf5780820380516001836020036101000a031916815260200191505b509250505060405180910390a16001905092915050565b6000610fd06119a2565b6000809054906101000a900473ffffffffffffffffffffffffffffffffffffffff1673ffffffffffffffffffffffffffffffffffffffff163373ffffffffffffffffffffffffffffffffffffffff1614151561102b57600080fd5b600073ffffffffffffffffffffffffffffffffffffffff1660016000886000191660001916815260200190815260200160002060010160009054906101000a900473ffffffffffffffffffffffffffffffffffffffff1673ffffffffffffffffffffffffffffffffffffffff16141515156110a557600080fd5b6000600260008960001916600019168152602001908152602001600020600201541415156110d257600080fd5b858160000190600019169081600019168152505042816040018181525050848160200181905250838160600181905250828160a0018190525080600260008960001916600019168152602001908152602001600020600082015181600001906000191690556020820151816001019080519060200190611153929190611a01565b5060408201518160020155606082015181600301908051906020019061117a929190611a01565b506080820151816004015560a08201518160050190805190602001906111a1929190611a01565b5060c08201518160060190805190602001906111be929190611a01565b5060e08201518160070160006101000a81548173ffffffffffffffffffffffffffffffffffffffff021916908373ffffffffffffffffffffffffffffffffffffffff1602179055509050506001600087600019166000191681526020019081526020016000206003018790806001815401808255809150509060018203906000526020600020016000909192909190915090600019169055507fac0f6936a81f2ef0fab96548aed713294ab9eedef6dba9c37352db8dbf1a16ff8787428888886040518087600019166000191681526020018660001916600019168152602001858152602001806020018060200180602001848103845287818151815260200191508051906020019080838360005b838110156112e85780820151818401526020810190506112cd565b50505050905090810190601f1680156113155780820380516001836020036101000a031916815260200191505b50848103835286818151815260200191508051906020019080838360005b8381101561134e578082015181840152602081019050611333565b50505050905090810190601f16801561137b5780820380516001836020036101000a031916815260200191505b50848103825285818151815260200191508051906020019080838360005b838110156113b4578082015181840152602081019050611399565b50505050905090810190601f1680156113e15780820380516001836020036101000a031916815260200191505b50995050505050505050505060405180910390a1600191505095945050505050565b600061140d611a81565b6000809054906101000a900473ffffffffffffffffffffffffffffffffffffffff1673ffffffffffffffffffffffffffffffffffffffff163373ffffffffffffffffffffffffffffffffffffffff1614151561146857600080fd5b600073ffffffffffffffffffffffffffffffffffffffff1660016000886000191660001916815260200190815260200160002060010160009054906101000a900473ffffffffffffffffffffffffffffffffffffffff1673ffffffffffffffffffffffffffffffffffffffff161415156114e157600080fd5b60806040519081016040528060206040519081016040528060008152508152602001600073ffffffffffffffffffffffffffffffffffffffff1681526020016020604051908101604052806000815250815260200160006040519080825280602002602001820160405280156115665781602001602082028038833980820191505090505b50815250905084816000018190525083816020019073ffffffffffffffffffffffffffffffffffffffff16908173ffffffffffffffffffffffffffffffffffffffff16815250508281604001819052508060016000886000191660001916815260200190815260200160002060008201518160000190805190602001906115ee929190611a01565b5060208201518160010160006101000a81548173ffffffffffffffffffffffffffffffffffffffff021916908373ffffffffffffffffffffffffffffffffffffffff1602179055506040820151816002019080519060200190611652929190611a01565b50606082015181600301908051906020019061166f929190611ac0565b509050507f23ecb0caac0f425c10c013c60e5be5be4755b8f1ab5e733e642bff129de167ee86868686604051808560001916600019168152602001806020018473ffffffffffffffffffffffffffffffffffffffff1673ffffffffffffffffffffffffffffffffffffffff16815260200180602001838103835286818151815260200191508051906020019080838360005b8381101561171c578082015181840152602081019050611701565b50505050905090810190601f1680156117495780820380516001836020036101000a031916815260200191505b50838103825284818151815260200191508051906020019080838360005b83811015611782578082015181840152602081019050611767565b50505050905090810190601f1680156117af5780820380516001836020036101000a031916815260200191505b50965050505050505060405180910390a16001915050949350505050565b6000809054906101000a900473ffffffffffffffffffffffffffffffffffffffff1673ffffffffffffffffffffffffffffffffffffffff163373ffffffffffffffffffffffffffffffffffffffff1614151561182857600080fd5b600073ffffffffffffffffffffffffffffffffffffffff168173ffffffffffffffffffffffffffffffffffffffff161415151561186457600080fd5b8073ffffffffffffffffffffffffffffffffffffffff166000809054906101000a900473ffffffffffffffffffffffffffffffffffffffff1673ffffffffffffffffffffffffffffffffffffffff167f8be0079c531659141344cd1fd0a4f28419497f9722a3daafe3b4186f6b6457e060405160405180910390a3806000806101000a81548173ffffffffffffffffffffffffffffffffffffffff021916908373ffffffffffffffffffffffffffffffffffffffff16021790555050565b828054600181600116156101000203166002900490600052602060002090601f016020900481019282601f1061196357805160ff1916838001178555611991565b82800160010185558215611991579182015b82811115611990578251825591602001919060010190611975565b5b50905061199e9190611b13565b5090565b6101006040519081016040528060008019168152602001606081526020016000815260200160608152602001600081526020016060815260200160608152602001600073ffffffffffffffffffffffffffffffffffffffff1681525090565b828054600181600116156101000203166002900490600052602060002090601f016020900481019282601f10611a4257805160ff1916838001178555611a70565b82800160010185558215611a70579182015b82811115611a6f578251825591602001919060010190611a54565b5b509050611a7d9190611b13565b5090565b60806040519081016040528060608152602001600073ffffffffffffffffffffffffffffffffffffffff16815260200160608152602001606081525090565b828054828255906000526020600020908101928215611b02579160200282015b82811115611b01578251829060001916905591602001919060010190611ae0565b5b509050611b0f9190611b38565b5090565b611b3591905b80821115611b31576000816000905550600101611b19565b5090565b90565b611b5a91905b80821115611b56576000816000905550600101611b3e565b5090565b905600a165627a7a72305820eeeff5dd7dd9045b0b78d4fd9a313de74a5a8b1388f00f343d1f0d93de54267f0029",
  "source": "pragma solidity ^0.4.18;\nimport 'zeppelin-solidity/contracts/ownership/Ownable.sol';\n\ncontract UniCraft is Ownable{\n    struct Certificate\n    {\n        bytes name;\n        address addr;\n        bytes ssn;\n        bytes32[] productIds;\n    }\n    // mapping artisanID -> artisan\n    mapping (bytes32 => Certificate) public artisans;\n    struct Product\n    {\n        bytes32 artisanId;\n        bytes coopProvince;\n        uint256 dateMade;\n        bytes fiber;\n        uint256 soldDate;\n        bytes compellingStoryUri;\n        bytes userStory;\n        address owner;\n    }\n    mapping (bytes32 => Product) public products;\n    \n    event IssuerCertificate(bytes32 _id, bytes _name, address _addr, bytes _ssn);\n    event CreateProduct(bytes32 _id, bytes32 _artisanId, uint256 _dateMade, bytes _coopProvince, bytes _fiber, bytes _cStory);\n    event BuyProduct(bytes32 _id, address buyer, uint256 _soldDate);\n    event UserStoryAdded(bytes UserStory);\n    /*\n    * @dev issue certificate for the artisan, this function throw EXCEPTION when artisanId is exist\n    * @param artisanId, artisan name, artisan ethereum address, artisan ssn\n    * @retun true if success in issue certificate for the artisan otherwise return false\n     */\n    function issuerCertificate(bytes32 _id, bytes _name, address _addr, bytes _ssn)\n    public\n    onlyOwner\n    returns (bool)\n    {\n        require(artisans[_id].addr == address(0x0));\n        Certificate memory certificate = Certificate(\"\",address(0x0),\"\",new bytes32[](0));\n        certificate.name = _name;\n        certificate.addr = _addr;\n        certificate.ssn = _ssn;\n        artisans[_id] = certificate;\n        emit IssuerCertificate(_id, _name, _addr, _ssn);\n        return true;\n    }\n    /*\n    * @dev list the product in Blockchain before listing on Ecomerce platform \n    * @param product Id, artisan Id (the maker of product), compelling story attached to that product\n    * @retun true if success in listing product otherwise return false\n     */\n    function listProduct(bytes32 _id, bytes32 _artisanId, bytes _coopProvince, bytes _fiber, bytes _cStory)\n    public\n    onlyOwner\n    returns (bool)\n    {\n        require(artisans[_artisanId].addr != address(0x0));\n        require(products[_id].dateMade == 0);\n        Product memory product;\n        product.artisanId = _artisanId;\n        product.dateMade = now;\n        product.coopProvince = _coopProvince;\n        product.fiber = _fiber;\n        product.compellingStoryUri = _cStory;\n        //product.status = 0;\n        products[_id] = product;\n        artisans[_artisanId].productIds.push(_id);\n        emit CreateProduct(_id, _artisanId, now, _coopProvince, _fiber, _cStory);\n        return true;\n    }\n    /*\n    * @dev add story and owner of product when someone invoke buying feature,\n    allow user to add their own story to the product as a gift or memory\n    * @param product Id, userStory in bytes\n    * @retun true if success in buying and otherwise false\n     */\n    function buyProduct(bytes32 _id, bytes _userStory)\n    public\n    returns (bool)\n    {\n        require(products[_id].owner == address(0x0));\n        require(products[_id].artisanId != 0);\n        products[_id].owner = msg.sender;\n        products[_id].soldDate = now;\n        products[_id].userStory = _userStory;\n        emit BuyProduct(_id, msg.sender, now);\n        emit UserStoryAdded(_userStory);\n        return true;\n    }\n    /*\n    * @dev count the total product an artisan have made\n    * @param artisan ID\n    * @retun number of total product\n    */\n    function getProductCount(bytes32 _artisanId)\n    public\n    view\n    returns (uint256)\n    {\n        return artisans[_artisanId].productIds.length;\n    }\n    /*\n    * @dev list all products Id an artisan have made\n    * @param artisan ID\n    * @retun the list of product ids\n    */\n    function getProductList(bytes32 _artisanId)\n    public\n    view\n    returns (bytes32[])\n    {\n        return artisans[_artisanId].productIds;\n    }\n}",
  "sourcePath": "/Users/hungngo/Documents/Blockchain/IBL/Project/Hackathon/Apec2018/apec-app-challenge-2018/contracts/UniCraft.sol",
  "compiler": {
    "name": "solc",
    "version": "0.4.23+commit.124ca40d.Emscripten.clang"
  },
  "schemaVersion": "2.0.0",
  "updatedAt": "2018-05-23T02:21:56.897Z"
}