{
  "contractName": "UniCraft",
  "abi": [
    {
      "constant": true,
      "inputs": [
        {
          "name": "",
          "type": "bytes32"
        }
      ],
      "name": "artisans",
      "outputs": [
        {
          "name": "name",
          "type": "bytes"
        },
        {
          "name": "addr",
          "type": "address"
        },
        {
          "name": "ssn",
          "type": "bytes"
        }
      ],
      "payable": false,
      "stateMutability": "view",
      "type": "function"
    },
    {
      "constant": true,
      "inputs": [
        {
          "name": "",
          "type": "bytes32"
        }
      ],
      "name": "products",
      "outputs": [
        {
          "name": "artisanId",
          "type": "bytes32"
        },
        {
          "name": "producedDate",
          "type": "uint256"
        },
        {
          "name": "soldDate",
          "type": "uint256"
        },
        {
          "name": "compellingStoryUri",
          "type": "bytes"
        },
        {
          "name": "userStory",
          "type": "bytes"
        },
        {
          "name": "owner",
          "type": "address"
        }
      ],
      "payable": false,
      "stateMutability": "view",
      "type": "function"
    },
    {
      "constant": true,
      "inputs": [],
      "name": "owner",
      "outputs": [
        {
          "name": "",
          "type": "address"
        }
      ],
      "payable": false,
      "stateMutability": "view",
      "type": "function"
    },
    {
      "constant": false,
      "inputs": [
        {
          "name": "newOwner",
          "type": "address"
        }
      ],
      "name": "transferOwnership",
      "outputs": [],
      "payable": false,
      "stateMutability": "nonpayable",
      "type": "function"
    },
    {
      "anonymous": false,
      "inputs": [
        {
          "indexed": false,
          "name": "_id",
          "type": "bytes32"
        },
        {
          "indexed": false,
          "name": "_name",
          "type": "bytes"
        },
        {
          "indexed": false,
          "name": "_addr",
          "type": "address"
        },
        {
          "indexed": false,
          "name": "_ssn",
          "type": "bytes"
        }
      ],
      "name": "IssuerCertificate",
      "type": "event"
    },
    {
      "anonymous": false,
      "inputs": [
        {
          "indexed": false,
          "name": "_id",
          "type": "bytes32"
        },
        {
          "indexed": false,
          "name": "_artisanId",
          "type": "bytes32"
        },
        {
          "indexed": false,
          "name": "_producedDate",
          "type": "uint256"
        },
        {
          "indexed": false,
          "name": "_cStory",
          "type": "bytes"
        }
      ],
      "name": "CreateProduct",
      "type": "event"
    },
    {
      "anonymous": false,
      "inputs": [
        {
          "indexed": false,
          "name": "_id",
          "type": "bytes32"
        },
        {
          "indexed": false,
          "name": "buyer",
          "type": "address"
        },
        {
          "indexed": false,
          "name": "_soldDate",
          "type": "uint256"
        },
        {
          "indexed": false,
          "name": "_uStory",
          "type": "bytes"
        }
      ],
      "name": "BuyProduct",
      "type": "event"
    },
    {
      "anonymous": false,
      "inputs": [
        {
          "indexed": true,
          "name": "previousOwner",
          "type": "address"
        },
        {
          "indexed": true,
          "name": "newOwner",
          "type": "address"
        }
      ],
      "name": "OwnershipTransferred",
      "type": "event"
    },
    {
      "constant": false,
      "inputs": [
        {
          "name": "_id",
          "type": "bytes32"
        },
        {
          "name": "_name",
          "type": "bytes"
        },
        {
          "name": "_addr",
          "type": "address"
        },
        {
          "name": "_ssn",
          "type": "bytes"
        }
      ],
      "name": "issuerCertificate",
      "outputs": [
        {
          "name": "",
          "type": "bool"
        }
      ],
      "payable": false,
      "stateMutability": "nonpayable",
      "type": "function"
    },
    {
      "constant": false,
      "inputs": [
        {
          "name": "_id",
          "type": "bytes32"
        },
        {
          "name": "_artisanId",
          "type": "bytes32"
        },
        {
          "name": "_cStory",
          "type": "bytes"
        }
      ],
      "name": "createProduct",
      "outputs": [
        {
          "name": "",
          "type": "bool"
        }
      ],
      "payable": false,
      "stateMutability": "nonpayable",
      "type": "function"
    },
    {
      "constant": false,
      "inputs": [
        {
          "name": "_id",
          "type": "bytes32"
        },
        {
          "name": "_userStory",
          "type": "bytes"
        }
      ],
      "name": "buyProduct",
      "outputs": [
        {
          "name": "",
          "type": "bool"
        }
      ],
      "payable": false,
      "stateMutability": "nonpayable",
      "type": "function"
    }
  ],
  "bytecode": "0x6080604052336000806101000a81548173ffffffffffffffffffffffffffffffffffffffff021916908373ffffffffffffffffffffffffffffffffffffffff160217905550611550806100536000396000f300608060405260043610610083576000357c0100000000000000000000000000000000000000000000000000000000900463ffffffff1680635ff434eb1461008857806379054391146101d15780638da5cb5b14610337578063cc2373821461038e578063db35bde61461041d578063ed6c4606146104ba578063f2fde38b146105af575b600080fd5b34801561009457600080fd5b506100b760048036038101908080356000191690602001909291905050506105f2565b60405180806020018473ffffffffffffffffffffffffffffffffffffffff1673ffffffffffffffffffffffffffffffffffffffff16815260200180602001838103835286818151815260200191508051906020019080838360005b8381101561012d578082015181840152602081019050610112565b50505050905090810190601f16801561015a5780820380516001836020036101000a031916815260200191505b50838103825284818151815260200191508051906020019080838360005b83811015610193578082015181840152602081019050610178565b50505050905090810190601f1680156101c05780820380516001836020036101000a031916815260200191505b509550505050505060405180910390f35b3480156101dd57600080fd5b50610200600480360381019080803560001916906020019092919050505061076c565b60405180876000191660001916815260200186815260200185815260200180602001806020018473ffffffffffffffffffffffffffffffffffffffff1673ffffffffffffffffffffffffffffffffffffffff168152602001838103835286818151815260200191508051906020019080838360005b83811015610290578082015181840152602081019050610275565b50505050905090810190601f1680156102bd5780820380516001836020036101000a031916815260200191505b50838103825285818151815260200191508051906020019080838360005b838110156102f65780820151818401526020810190506102db565b50505050905090810190601f1680156103235780820380516001836020036101000a031916815260200191505b509850505050505050505060405180910390f35b34801561034357600080fd5b5061034c6108f8565b604051808273ffffffffffffffffffffffffffffffffffffffff1673ffffffffffffffffffffffffffffffffffffffff16815260200191505060405180910390f35b34801561039a57600080fd5b506104036004803603810190808035600019169060200190929190803590602001908201803590602001908080601f016020809104026020016040519081016040528093929190818152602001838380828437820191505050505050919291929050505061091d565b604051808215151515815260200191505060405180910390f35b34801561042957600080fd5b506104a060048036038101908080356000191690602001909291908035600019169060200190929190803590602001908201803590602001908080601f0160208091040260200160405190810160405280939291908181526020018383808284378201915050505050509192919290505050610b3c565b604051808215151515815260200191505060405180910390f35b3480156104c657600080fd5b506105956004803603810190808035600019169060200190929190803590602001908201803590602001908080601f0160208091040260200160405190810160405280939291908181526020018383808284378201915050505050509192919290803573ffffffffffffffffffffffffffffffffffffffff169060200190929190803590602001908201803590602001908080601f0160208091040260200160405190810160405280939291908181526020018383808284378201915050505050509192919290505050610e52565b604051808215151515815260200191505060405180910390f35b3480156105bb57600080fd5b506105f0600480360381019080803573ffffffffffffffffffffffffffffffffffffffff1690602001909291905050506111a3565b005b6001602052806000526040600020600091509050806000018054600181600116156101000203166002900480601f01602080910402602001604051908101604052809291908181526020018280546001816001161561010002031660029004801561069e5780601f106106735761010080835404028352916020019161069e565b820191906000526020600020905b81548152906001019060200180831161068157829003601f168201915b5050505050908060010160009054906101000a900473ffffffffffffffffffffffffffffffffffffffff1690806002018054600181600116156101000203166002900480601f0160208091040260200160405190810160405280929190818152602001828054600181600116156101000203166002900480156107625780601f1061073757610100808354040283529160200191610762565b820191906000526020600020905b81548152906001019060200180831161074557829003601f168201915b5050505050905083565b6002602052806000526040600020600091509050806000015490806001015490806002015490806003018054600181600116156101000203166002900480601f01602080910402602001604051908101604052809291908181526020018280546001816001161561010002031660029004801561082a5780601f106107ff5761010080835404028352916020019161082a565b820191906000526020600020905b81548152906001019060200180831161080d57829003601f168201915b505050505090806004018054600181600116156101000203166002900480601f0160208091040260200160405190810160405280929190818152602001828054600181600116156101000203166002900480156108c85780601f1061089d576101008083540402835291602001916108c8565b820191906000526020600020905b8154815290600101906020018083116108ab57829003601f168201915b5050505050908060050160009054906101000a900473ffffffffffffffffffffffffffffffffffffffff16905086565b6000809054906101000a900473ffffffffffffffffffffffffffffffffffffffff1681565b60008073ffffffffffffffffffffffffffffffffffffffff1660026000856000191660001916815260200190815260200160002060050160009054906101000a900473ffffffffffffffffffffffffffffffffffffffff1673ffffffffffffffffffffffffffffffffffffffff1614151561099757600080fd5b3360026000856000191660001916815260200190815260200160002060050160006101000a81548173ffffffffffffffffffffffffffffffffffffffff021916908373ffffffffffffffffffffffffffffffffffffffff1602179055504260026000856000191660001916815260200190815260200160002060020181905550816002600085600019166000191681526020019081526020016000206004019080519060200190610a499291906112f8565b507f43d267afd0658e43f8784291970a86aadd80e81a9f1e3cbb40130c9c00cff2eb833342856040518085600019166000191681526020018473ffffffffffffffffffffffffffffffffffffffff1673ffffffffffffffffffffffffffffffffffffffff16815260200183815260200180602001828103825283818151815260200191508051906020019080838360005b83811015610af5578082015181840152602081019050610ada565b50505050905090810190601f168015610b225780820380516001836020036101000a031916815260200191505b509550505050505060405180910390a16001905092915050565b6000610b46611378565b6000809054906101000a900473ffffffffffffffffffffffffffffffffffffffff1673ffffffffffffffffffffffffffffffffffffffff163373ffffffffffffffffffffffffffffffffffffffff16141515610ba157600080fd5b600073ffffffffffffffffffffffffffffffffffffffff1660016000866000191660001916815260200190815260200160002060010160009054906101000a900473ffffffffffffffffffffffffffffffffffffffff1673ffffffffffffffffffffffffffffffffffffffff1614151515610c1b57600080fd5b60006002600087600019166000191681526020019081526020016000206001015414151515610c4957600080fd5b838160000190600019169081600019168152505042816020018181525050828160600181905250806002600087600019166000191681526020019081526020016000206000820151816000019060001916905560208201518160010155604082015181600201556060820151816003019080519060200190610ccc9291906113c8565b506080820151816004019080519060200190610ce99291906113c8565b5060a08201518160050160006101000a81548173ffffffffffffffffffffffffffffffffffffffff021916908373ffffffffffffffffffffffffffffffffffffffff1602179055509050506001600085600019166000191681526020019081526020016000206003018590806001815401808255809150509060018203906000526020600020016000909192909190915090600019169055507f4da5e12027c3a4fee969fb17ff02a4766d7cb807a9aa3a948da3dbee4ecde5ce85854286604051808560001916600019168152602001846000191660001916815260200183815260200180602001828103825283818151815260200191508051906020019080838360005b83811015610e09578082015181840152602081019050610dee565b50505050905090810190601f168015610e365780820380516001836020036101000a031916815260200191505b509550505050505060405180910390a160019150509392505050565b6000610e5c611448565b6000809054906101000a900473ffffffffffffffffffffffffffffffffffffffff1673ffffffffffffffffffffffffffffffffffffffff163373ffffffffffffffffffffffffffffffffffffffff16141515610eb757600080fd5b60806040519081016040528060206040519081016040528060008152508152602001600073ffffffffffffffffffffffffffffffffffffffff168152602001602060405190810160405280600081525081526020016000604051908082528060200260200182016040528015610f3c5781602001602082028038833980820191505090505b50815250905084816000018190525083816020019073ffffffffffffffffffffffffffffffffffffffff16908173ffffffffffffffffffffffffffffffffffffffff1681525050828160400181905250806001600088600019166000191681526020019081526020016000206000820151816000019080519060200190610fc49291906113c8565b5060208201518160010160006101000a81548173ffffffffffffffffffffffffffffffffffffffff021916908373ffffffffffffffffffffffffffffffffffffffff16021790555060408201518160020190805190602001906110289291906113c8565b506060820151816003019080519060200190611045929190611487565b509050507f23ecb0caac0f425c10c013c60e5be5be4755b8f1ab5e733e642bff129de167ee86868686604051808560001916600019168152602001806020018473ffffffffffffffffffffffffffffffffffffffff1673ffffffffffffffffffffffffffffffffffffffff16815260200180602001838103835286818151815260200191508051906020019080838360005b838110156110f25780820151818401526020810190506110d7565b50505050905090810190601f16801561111f5780820380516001836020036101000a031916815260200191505b50838103825284818151815260200191508051906020019080838360005b8381101561115857808201518184015260208101905061113d565b50505050905090810190601f1680156111855780820380516001836020036101000a031916815260200191505b50965050505050505060405180910390a16001915050949350505050565b6000809054906101000a900473ffffffffffffffffffffffffffffffffffffffff1673ffffffffffffffffffffffffffffffffffffffff163373ffffffffffffffffffffffffffffffffffffffff161415156111fe57600080fd5b600073ffffffffffffffffffffffffffffffffffffffff168173ffffffffffffffffffffffffffffffffffffffff161415151561123a57600080fd5b8073ffffffffffffffffffffffffffffffffffffffff166000809054906101000a900473ffffffffffffffffffffffffffffffffffffffff1673ffffffffffffffffffffffffffffffffffffffff167f8be0079c531659141344cd1fd0a4f28419497f9722a3daafe3b4186f6b6457e060405160405180910390a3806000806101000a81548173ffffffffffffffffffffffffffffffffffffffff021916908373ffffffffffffffffffffffffffffffffffffffff16021790555050565b828054600181600116156101000203166002900490600052602060002090601f016020900481019282601f1061133957805160ff1916838001178555611367565b82800160010185558215611367579182015b8281111561136657825182559160200191906001019061134b565b5b50905061137491906114da565b5090565b60c0604051908101604052806000801916815260200160008152602001600081526020016060815260200160608152602001600073ffffffffffffffffffffffffffffffffffffffff1681525090565b828054600181600116156101000203166002900490600052602060002090601f016020900481019282601f1061140957805160ff1916838001178555611437565b82800160010185558215611437579182015b8281111561143657825182559160200191906001019061141b565b5b50905061144491906114da565b5090565b60806040519081016040528060608152602001600073ffffffffffffffffffffffffffffffffffffffff16815260200160608152602001606081525090565b8280548282559060005260206000209081019282156114c9579160200282015b828111156114c85782518290600019169055916020019190600101906114a7565b5b5090506114d691906114ff565b5090565b6114fc91905b808211156114f85760008160009055506001016114e0565b5090565b90565b61152191905b8082111561151d576000816000905550600101611505565b5090565b905600a165627a7a72305820e2951d79ac9954883f71fb6e4c1a4e66b54637fd359b33e3149bb7508365d9c70029",
  "source": "pragma solidity ^0.4.18;\nimport 'zeppelin-solidity/contracts/ownership/ownable.sol';\n\ncontract UniCraft is Ownable{\n    struct Certificate{\n        bytes name;\n        address addr;\n        bytes ssn;\n        bytes32[] productIds;\n    }\n    // mapping artisanID -> artisan\n    mapping (bytes32 => Certificate) public artisans;\n    struct Product{\n        bytes32 artisanId;\n        uint256 producedDate;\n        uint256 soldDate;\n        bytes compellingStoryUri;\n        bytes userStory;\n        address owner;\n        //uint8 status;\n        //0: Available, 1: Unverified, 2: Verified\n    }\n    //mapping productID -> product\n    mapping (bytes32 => Product) public products;\n    \n    event IssuerCertificate(bytes32 _id, bytes _name, address _addr, bytes _ssn);\n    event CreateProduct(bytes32 _id, bytes32 _artisanId, uint256 _producedDate, bytes _cStory);\n    event BuyProduct(bytes32 _id, address buyer, uint256 _soldDate, bytes _uStory);\n    // event AddUserStory(bytes32 _id, bytes _userStory);\n    // event ConfirmProduct(bytes32 _id, bool _result);\n    function issuerCertificate(bytes32 _id, bytes _name, address _addr, bytes _ssn)\n    public\n    onlyOwner\n    returns (bool)\n    {\n        Certificate memory certificate = Certificate(\"\",address(0x0),\"\",new bytes32[](0));\n        certificate.name = _name;\n        certificate.addr = _addr;\n        certificate.ssn = _ssn;\n        artisans[_id] = certificate;\n        emit IssuerCertificate(_id, _name, _addr, _ssn);\n        return true;\n    }\n    \n    function createProduct(bytes32 _id, bytes32 _artisanId, bytes _cStory)\n    public\n    onlyOwner\n    returns (bool)\n    {\n        require(artisans[_artisanId].addr != address(0x0));\n        require(products[_id].producedDate != 0);\n        Product memory product;\n        product.artisanId = _artisanId;\n        product.producedDate = now;\n        product.compellingStoryUri = _cStory;\n        //product.status = 0;\n        products[_id] = product;\n        artisans[_artisanId].productIds.push(_id);\n        emit CreateProduct(_id, _artisanId, now, _cStory);\n        return true;\n    }\n    function buyProduct(bytes32 _id, bytes _userStory)\n    public\n    returns (bool)\n    {\n        require(products[_id].owner == address(0x0));\n        //products[_id].status == 1\n        products[_id].owner = msg.sender;\n        products[_id].soldDate = now;\n        products[_id].userStory = _userStory;\n        emit BuyProduct(_id, msg.sender, now, _userStory);\n        return true;\n    }\n    // function addUserStory(bytes32 _id, bytes _userStory)\n    // public\n    // returns (bool)\n    // {\n    //     require(products[_id].owner == msg.sender);\n    //     require(products[_id].status == 1);\n    //     products[_id].userStory = _userStory;\n    //     emit AddUserStory(_id, _userStory);\n    //     return true;\n    // }\n    // function confirmProduct(bytes32 _id)\n    // public\n    // returns (bool)\n    // {\n    //     require(products[_id].owner == msg.sender);\n    //     require(products[_id].status == 1);\n    //     products[_id].status = 2;\n    //     emit ConfirmProduct(_id, true);\n    //     return true;\n    // }\n}",
  "sourcePath": "/Users/hungngo/Documents/Blockchain/IBL/Project/Hackathon/Apec2018/apec-app-challenge-2018/contracts/UniCraft.sol",
  "compiler": {
    "name": "solc",
    "version": "0.4.23+commit.124ca40d.Emscripten.clang"
  },
  "schemaVersion": "2.0.0",
  "updatedAt": "2018-05-22T18:06:32.778Z"
}