{
  "contractName": "UniCraft",
  "abi": [
    {
      "constant": true,
      "inputs": [
        {
          "name": "",
          "type": "bytes32"
        }
      ],
      "name": "artisans",
      "outputs": [
        {
          "name": "name",
          "type": "bytes"
        },
        {
          "name": "addr",
          "type": "address"
        },
        {
          "name": "ssn",
          "type": "bytes"
        }
      ],
      "payable": false,
      "stateMutability": "view",
      "type": "function"
    },
    {
      "constant": true,
      "inputs": [
        {
          "name": "",
          "type": "bytes32"
        }
      ],
      "name": "products",
      "outputs": [
        {
          "name": "artisanId",
          "type": "bytes32"
        },
        {
          "name": "producedDate",
          "type": "uint256"
        },
        {
          "name": "soldDate",
          "type": "uint256"
        },
        {
          "name": "compellingStoryUri",
          "type": "bytes"
        },
        {
          "name": "userStory",
          "type": "bytes"
        },
        {
          "name": "owner",
          "type": "address"
        },
        {
          "name": "status",
          "type": "uint8"
        }
      ],
      "payable": false,
      "stateMutability": "view",
      "type": "function"
    },
    {
      "constant": true,
      "inputs": [],
      "name": "owner",
      "outputs": [
        {
          "name": "",
          "type": "address"
        }
      ],
      "payable": false,
      "stateMutability": "view",
      "type": "function"
    },
    {
      "constant": false,
      "inputs": [
        {
          "name": "newOwner",
          "type": "address"
        }
      ],
      "name": "transferOwnership",
      "outputs": [],
      "payable": false,
      "stateMutability": "nonpayable",
      "type": "function"
    },
    {
      "anonymous": false,
      "inputs": [
        {
          "indexed": false,
          "name": "_id",
          "type": "bytes32"
        },
        {
          "indexed": false,
          "name": "_name",
          "type": "bytes"
        },
        {
          "indexed": false,
          "name": "_addr",
          "type": "address"
        },
        {
          "indexed": false,
          "name": "_ssn",
          "type": "bytes"
        }
      ],
      "name": "IssuerCertificate",
      "type": "event"
    },
    {
      "anonymous": false,
      "inputs": [
        {
          "indexed": false,
          "name": "_id",
          "type": "bytes32"
        },
        {
          "indexed": false,
          "name": "_artisanId",
          "type": "bytes32"
        },
        {
          "indexed": false,
          "name": "_producedDate",
          "type": "uint256"
        },
        {
          "indexed": false,
          "name": "_cStory",
          "type": "bytes"
        }
      ],
      "name": "CreateProduct",
      "type": "event"
    },
    {
      "anonymous": false,
      "inputs": [
        {
          "indexed": false,
          "name": "_id",
          "type": "bytes32"
        },
        {
          "indexed": false,
          "name": "buyer",
          "type": "address"
        },
        {
          "indexed": false,
          "name": "_soldDate",
          "type": "uint256"
        }
      ],
      "name": "BuyProduct",
      "type": "event"
    },
    {
      "anonymous": false,
      "inputs": [
        {
          "indexed": false,
          "name": "_id",
          "type": "bytes32"
        },
        {
          "indexed": false,
          "name": "_userStory",
          "type": "bytes"
        }
      ],
      "name": "AddUserStory",
      "type": "event"
    },
    {
      "anonymous": false,
      "inputs": [
        {
          "indexed": false,
          "name": "_id",
          "type": "bytes32"
        },
        {
          "indexed": false,
          "name": "_result",
          "type": "bool"
        }
      ],
      "name": "ConfirmProduct",
      "type": "event"
    },
    {
      "anonymous": false,
      "inputs": [
        {
          "indexed": true,
          "name": "previousOwner",
          "type": "address"
        },
        {
          "indexed": true,
          "name": "newOwner",
          "type": "address"
        }
      ],
      "name": "OwnershipTransferred",
      "type": "event"
    },
    {
      "constant": false,
      "inputs": [
        {
          "name": "_id",
          "type": "bytes32"
        },
        {
          "name": "_name",
          "type": "bytes"
        },
        {
          "name": "_addr",
          "type": "address"
        },
        {
          "name": "_ssn",
          "type": "bytes"
        }
      ],
      "name": "issuerCertificate",
      "outputs": [
        {
          "name": "",
          "type": "bool"
        }
      ],
      "payable": false,
      "stateMutability": "nonpayable",
      "type": "function"
    },
    {
      "constant": false,
      "inputs": [
        {
          "name": "_id",
          "type": "bytes32"
        },
        {
          "name": "_artisanId",
          "type": "bytes32"
        },
        {
          "name": "_cStory",
          "type": "bytes"
        }
      ],
      "name": "createProduct",
      "outputs": [
        {
          "name": "",
          "type": "bool"
        }
      ],
      "payable": false,
      "stateMutability": "nonpayable",
      "type": "function"
    },
    {
      "constant": false,
      "inputs": [
        {
          "name": "_id",
          "type": "bytes32"
        },
        {
          "name": "_soldDate",
          "type": "uint256"
        }
      ],
      "name": "buyProduct",
      "outputs": [
        {
          "name": "",
          "type": "bool"
        }
      ],
      "payable": false,
      "stateMutability": "nonpayable",
      "type": "function"
    },
    {
      "constant": false,
      "inputs": [
        {
          "name": "_id",
          "type": "bytes32"
        },
        {
          "name": "_userStory",
          "type": "bytes"
        }
      ],
      "name": "addUserStory",
      "outputs": [
        {
          "name": "",
          "type": "bool"
        }
      ],
      "payable": false,
      "stateMutability": "nonpayable",
      "type": "function"
    },
    {
      "constant": false,
      "inputs": [
        {
          "name": "_id",
          "type": "bytes32"
        }
      ],
      "name": "confirmProduct",
      "outputs": [
        {
          "name": "",
          "type": "bool"
        }
      ],
      "payable": false,
      "stateMutability": "nonpayable",
      "type": "function"
    }
  ],
  "bytecode": "0x6080604052336000806101000a81548173ffffffffffffffffffffffffffffffffffffffff021916908373ffffffffffffffffffffffffffffffffffffffff1602179055506118db806100536000396000f300608060405260043610610099576000357c0100000000000000000000000000000000000000000000000000000000900463ffffffff1680630c9778ed1461009e5780635ff434eb1461012d57806379054391146102765780638da5cb5b146103e95780639743f77114610440578063db35bde614610493578063e6d439d114610530578063ed6c460614610579578063f2fde38b1461066e575b600080fd5b3480156100aa57600080fd5b506101136004803603810190808035600019169060200190929190803590602001908201803590602001908080601f01602080910402602001604051908101604052809392919081815260200183838082843782019150505050505091929192905050506106b1565b604051808215151515815260200191505060405180910390f35b34801561013957600080fd5b5061015c6004803603810190808035600019169060200190929190505050610851565b60405180806020018473ffffffffffffffffffffffffffffffffffffffff1673ffffffffffffffffffffffffffffffffffffffff16815260200180602001838103835286818151815260200191508051906020019080838360005b838110156101d25780820151818401526020810190506101b7565b50505050905090810190601f1680156101ff5780820380516001836020036101000a031916815260200191505b50838103825284818151815260200191508051906020019080838360005b8381101561023857808201518184015260208101905061021d565b50505050905090810190601f1680156102655780820380516001836020036101000a031916815260200191505b509550505050505060405180910390f35b34801561028257600080fd5b506102a560048036038101908080356000191690602001909291905050506109cb565b60405180886000191660001916815260200187815260200186815260200180602001806020018573ffffffffffffffffffffffffffffffffffffffff1673ffffffffffffffffffffffffffffffffffffffff1681526020018460ff1660ff168152602001838103835287818151815260200191508051906020019080838360005b83811015610341578082015181840152602081019050610326565b50505050905090810190601f16801561036e5780820380516001836020036101000a031916815260200191505b50838103825286818151815260200191508051906020019080838360005b838110156103a757808201518184015260208101905061038c565b50505050905090810190601f1680156103d45780820380516001836020036101000a031916815260200191505b50995050505050505050505060405180910390f35b3480156103f557600080fd5b506103fe610b6a565b604051808273ffffffffffffffffffffffffffffffffffffffff1673ffffffffffffffffffffffffffffffffffffffff16815260200191505060405180910390f35b34801561044c57600080fd5b50610479600480360381019080803560001916906020019092919080359060200190929190505050610b8f565b604051808215151515815260200191505060405180910390f35b34801561049f57600080fd5b5061051660048036038101908080356000191690602001909291908035600019169060200190929190803590602001908201803590602001908080601f0160208091040260200160405190810160405280939291908181526020018383808284378201915050505050509192919290505050610d46565b604051808215151515815260200191505060405180910390f35b34801561053c57600080fd5b5061055f6004803603810190808035600019169060200190929190505050611090565b604051808215151515815260200191505060405180910390f35b34801561058557600080fd5b506106546004803603810190808035600019169060200190929190803590602001908201803590602001908080601f0160208091040260200160405190810160405280939291908181526020018383808284378201915050505050509192919290803573ffffffffffffffffffffffffffffffffffffffff169060200190929190803590602001908201803590602001908080601f01602080910402602001604051908101604052809392919081815260200183838082843782019150505050505091929192905050506111d3565b604051808215151515815260200191505060405180910390f35b34801561067a57600080fd5b506106af600480360381019080803573ffffffffffffffffffffffffffffffffffffffff169060200190929190505050611524565b005b60003373ffffffffffffffffffffffffffffffffffffffff1660026000856000191660001916815260200190815260200160002060050160009054906101000a900473ffffffffffffffffffffffffffffffffffffffff1673ffffffffffffffffffffffffffffffffffffffff1614151561072b57600080fd5b600160026000856000191660001916815260200190815260200160002060050160149054906101000a900460ff1660ff1614151561076857600080fd5b81600260008560001916600019168152602001908152602001600020600401908051906020019061079a929190611679565b507f4f854a50680cabbd4b80b20df9f0b6ead89a9146f75fdb9fc58f4285f381883a838360405180836000191660001916815260200180602001828103825283818151815260200191508051906020019080838360005b8381101561080c5780820151818401526020810190506107f1565b50505050905090810190601f1680156108395780820380516001836020036101000a031916815260200191505b50935050505060405180910390a16001905092915050565b6001602052806000526040600020600091509050806000018054600181600116156101000203166002900480601f0160208091040260200160405190810160405280929190818152602001828054600181600116156101000203166002900480156108fd5780601f106108d2576101008083540402835291602001916108fd565b820191906000526020600020905b8154815290600101906020018083116108e057829003601f168201915b5050505050908060010160009054906101000a900473ffffffffffffffffffffffffffffffffffffffff1690806002018054600181600116156101000203166002900480601f0160208091040260200160405190810160405280929190818152602001828054600181600116156101000203166002900480156109c15780601f10610996576101008083540402835291602001916109c1565b820191906000526020600020905b8154815290600101906020018083116109a457829003601f168201915b5050505050905083565b6002602052806000526040600020600091509050806000015490806001015490806002015490806003018054600181600116156101000203166002900480601f016020809104026020016040519081016040528092919081815260200182805460018160011615610100020316600290048015610a895780601f10610a5e57610100808354040283529160200191610a89565b820191906000526020600020905b815481529060010190602001808311610a6c57829003601f168201915b505050505090806004018054600181600116156101000203166002900480601f016020809104026020016040519081016040528092919081815260200182805460018160011615610100020316600290048015610b275780601f10610afc57610100808354040283529160200191610b27565b820191906000526020600020905b815481529060010190602001808311610b0a57829003601f168201915b5050505050908060050160009054906101000a900473ffffffffffffffffffffffffffffffffffffffff16908060050160149054906101000a900460ff16905087565b6000809054906101000a900473ffffffffffffffffffffffffffffffffffffffff1681565b60008073ffffffffffffffffffffffffffffffffffffffff1660026000856000191660001916815260200190815260200160002060050160009054906101000a900473ffffffffffffffffffffffffffffffffffffffff1673ffffffffffffffffffffffffffffffffffffffff16141515610c0957600080fd5b3360026000856000191660001916815260200190815260200160002060050160006101000a81548173ffffffffffffffffffffffffffffffffffffffff021916908373ffffffffffffffffffffffffffffffffffffffff160217905550600160026000856000191660001916815260200190815260200160002060050160146101000a81548160ff021916908360ff16021790555042600260008560001916600019168152602001908152602001600020600201819055507f85539c7d87472debaeb8044f5dfd8b280fe37bf22c2c3742ccd8260861a256318333426040518084600019166000191681526020018373ffffffffffffffffffffffffffffffffffffffff1673ffffffffffffffffffffffffffffffffffffffff168152602001828152602001935050505060405180910390a16001905092915050565b6000610d506116f9565b6000809054906101000a900473ffffffffffffffffffffffffffffffffffffffff1673ffffffffffffffffffffffffffffffffffffffff163373ffffffffffffffffffffffffffffffffffffffff16141515610dab57600080fd5b600073ffffffffffffffffffffffffffffffffffffffff1660016000866000191660001916815260200190815260200160002060010160009054906101000a900473ffffffffffffffffffffffffffffffffffffffff1673ffffffffffffffffffffffffffffffffffffffff1614151515610e2557600080fd5b60006002600087600019166000191681526020019081526020016000206001015414151515610e5357600080fd5b83816000019060001916908160001916815250504281602001818152505082816060018190525060008160c0019060ff16908160ff1681525050806002600087600019166000191681526020019081526020016000206000820151816000019060001916905560208201518160010155604082015181600201556060820151816003019080519060200190610ee9929190611753565b506080820151816004019080519060200190610f06929190611753565b5060a08201518160050160006101000a81548173ffffffffffffffffffffffffffffffffffffffff021916908373ffffffffffffffffffffffffffffffffffffffff16021790555060c08201518160050160146101000a81548160ff021916908360ff1602179055509050506001600085600019166000191681526020019081526020016000206003018590806001815401808255809150509060018203906000526020600020016000909192909190915090600019169055507f4da5e12027c3a4fee969fb17ff02a4766d7cb807a9aa3a948da3dbee4ecde5ce85854286604051808560001916600019168152602001846000191660001916815260200183815260200180602001828103825283818151815260200191508051906020019080838360005b8381101561104757808201518184015260208101905061102c565b50505050905090810190601f1680156110745780820380516001836020036101000a031916815260200191505b509550505050505060405180910390a160019150509392505050565b60003373ffffffffffffffffffffffffffffffffffffffff1660026000846000191660001916815260200190815260200160002060050160009054906101000a900473ffffffffffffffffffffffffffffffffffffffff1673ffffffffffffffffffffffffffffffffffffffff1614151561110a57600080fd5b600160026000846000191660001916815260200190815260200160002060050160149054906101000a900460ff1660ff1614151561114757600080fd5b6002806000846000191660001916815260200190815260200160002060050160146101000a81548160ff021916908360ff1602179055507f6cbb3471a67d1c2c6272f2f348e4a33e7e0f4f18028f8ba7f87136594ab47e5f826001604051808360001916600019168152602001821515151581526020019250505060405180910390a160019050919050565b60006111dd6117d3565b6000809054906101000a900473ffffffffffffffffffffffffffffffffffffffff1673ffffffffffffffffffffffffffffffffffffffff163373ffffffffffffffffffffffffffffffffffffffff1614151561123857600080fd5b60806040519081016040528060206040519081016040528060008152508152602001600073ffffffffffffffffffffffffffffffffffffffff1681526020016020604051908101604052806000815250815260200160006040519080825280602002602001820160405280156112bd5781602001602082028038833980820191505090505b50815250905084816000018190525083816020019073ffffffffffffffffffffffffffffffffffffffff16908173ffffffffffffffffffffffffffffffffffffffff1681525050828160400181905250806001600088600019166000191681526020019081526020016000206000820151816000019080519060200190611345929190611753565b5060208201518160010160006101000a81548173ffffffffffffffffffffffffffffffffffffffff021916908373ffffffffffffffffffffffffffffffffffffffff16021790555060408201518160020190805190602001906113a9929190611753565b5060608201518160030190805190602001906113c6929190611812565b509050507f23ecb0caac0f425c10c013c60e5be5be4755b8f1ab5e733e642bff129de167ee86868686604051808560001916600019168152602001806020018473ffffffffffffffffffffffffffffffffffffffff1673ffffffffffffffffffffffffffffffffffffffff16815260200180602001838103835286818151815260200191508051906020019080838360005b83811015611473578082015181840152602081019050611458565b50505050905090810190601f1680156114a05780820380516001836020036101000a031916815260200191505b50838103825284818151815260200191508051906020019080838360005b838110156114d95780820151818401526020810190506114be565b50505050905090810190601f1680156115065780820380516001836020036101000a031916815260200191505b50965050505050505060405180910390a16001915050949350505050565b6000809054906101000a900473ffffffffffffffffffffffffffffffffffffffff1673ffffffffffffffffffffffffffffffffffffffff163373ffffffffffffffffffffffffffffffffffffffff1614151561157f57600080fd5b600073ffffffffffffffffffffffffffffffffffffffff168173ffffffffffffffffffffffffffffffffffffffff16141515156115bb57600080fd5b8073ffffffffffffffffffffffffffffffffffffffff166000809054906101000a900473ffffffffffffffffffffffffffffffffffffffff1673ffffffffffffffffffffffffffffffffffffffff167f8be0079c531659141344cd1fd0a4f28419497f9722a3daafe3b4186f6b6457e060405160405180910390a3806000806101000a81548173ffffffffffffffffffffffffffffffffffffffff021916908373ffffffffffffffffffffffffffffffffffffffff16021790555050565b828054600181600116156101000203166002900490600052602060002090601f016020900481019282601f106116ba57805160ff19168380011785556116e8565b828001600101855582156116e8579182015b828111156116e75782518255916020019190600101906116cc565b5b5090506116f59190611865565b5090565b60e0604051908101604052806000801916815260200160008152602001600081526020016060815260200160608152602001600073ffffffffffffffffffffffffffffffffffffffff168152602001600060ff1681525090565b828054600181600116156101000203166002900490600052602060002090601f016020900481019282601f1061179457805160ff19168380011785556117c2565b828001600101855582156117c2579182015b828111156117c15782518255916020019190600101906117a6565b5b5090506117cf9190611865565b5090565b60806040519081016040528060608152602001600073ffffffffffffffffffffffffffffffffffffffff16815260200160608152602001606081525090565b828054828255906000526020600020908101928215611854579160200282015b82811115611853578251829060001916905591602001919060010190611832565b5b509050611861919061188a565b5090565b61188791905b8082111561188357600081600090555060010161186b565b5090565b90565b6118ac91905b808211156118a8576000816000905550600101611890565b5090565b905600a165627a7a723058204e135bd95d73b409ebfa3ace60e3330bc235a7e0d4ab1022087089971a80db500029",
  "source": "pragma solidity ^0.4.18;\nimport 'zeppelin-solidity/contracts/ownership/ownable.sol';\n\ncontract UniCraft is Ownable{\n    struct Certificate{\n        bytes name;\n        address addr;\n        bytes ssn;\n        bytes32[] productIds;\n    }\n    // mapping artisanID -> artisan\n    mapping (bytes32 => Certificate) public artisans;\n    struct Product{\n        bytes32 artisanId;\n        uint256 producedDate;\n        uint256 soldDate;\n        bytes compellingStoryUri;\n        bytes userStory;\n        address owner;\n        uint8 status;\n        //0: Available, 1: Unverified, 2: Verified\n    }\n    //mapping productID -> product\n    mapping (bytes32 => Product) public products;\n    \n    event IssuerCertificate(bytes32 _id, bytes _name, address _addr, bytes _ssn);\n    event CreateProduct(bytes32 _id, bytes32 _artisanId, uint256 _producedDate, bytes _cStory);\n    event BuyProduct(bytes32 _id, address buyer, uint256 _soldDate);\n    event AddUserStory(bytes32 _id, bytes _userStory);\n    event ConfirmProduct(bytes32 _id, bool _result);\n    function issuerCertificate(bytes32 _id, bytes _name, address _addr, bytes _ssn)\n    public\n    onlyOwner\n    returns (bool)\n    {\n        Certificate memory certificate = Certificate(\"\",address(0x0),\"\",new bytes32[](0));\n        certificate.name = _name;\n        certificate.addr = _addr;\n        certificate.ssn = _ssn;\n        artisans[_id] = certificate;\n        emit IssuerCertificate(_id, _name, _addr, _ssn);\n        return true;\n    }\n    \n    function createProduct(bytes32 _id, bytes32 _artisanId, bytes _cStory)\n    public\n    onlyOwner\n    returns (bool)\n    {\n        require(artisans[_artisanId].addr != address(0x0));\n        require(products[_id].producedDate != 0);\n        Product memory product;\n        product.artisanId = _artisanId;\n        product.producedDate = now;\n        product.compellingStoryUri = _cStory;\n        product.status = 0;\n        products[_id] = product;\n        artisans[_artisanId].productIds.push(_id);\n        emit CreateProduct(_id, _artisanId, now, _cStory);\n        return true;\n    }\n    function buyProduct(bytes32 _id, uint256 _soldDate)\n    public\n    returns (bool)\n    {\n        require(products[_id].owner == address(0x0));\n        products[_id].owner = msg.sender;\n        products[_id].status = 1;\n        products[_id].soldDate = now;\n        emit BuyProduct(_id, msg.sender, now);\n        return true;\n    }\n    function addUserStory(bytes32 _id, bytes _userStory)\n    public\n    returns (bool)\n    {\n        require(products[_id].owner == msg.sender);\n        require(products[_id].status == 1);\n        products[_id].userStory = _userStory;\n        emit AddUserStory(_id, _userStory);\n        return true;\n    }\n    function confirmProduct(bytes32 _id)\n    public\n    returns (bool)\n    {\n        require(products[_id].owner == msg.sender);\n        require(products[_id].status == 1);\n        products[_id].status = 2;\n        emit ConfirmProduct(_id, true);\n        return true;\n    }\n}",
  "sourcePath": "/Users/hungngo/Documents/Blockchain/IBL/Project/Hackathon/Apec2018/apec-app-challenge-2018/contracts/UniCraft.sol",
  "compiler": {
    "name": "solc",
    "version": "0.4.23+commit.124ca40d.Emscripten.clang"
  },
  "schemaVersion": "2.0.0",
  "updatedAt": "2018-05-22T17:54:08.987Z"
}