{
  "contractName": "UniCraft",
  "abi": [
    {
      "constant": true,
      "inputs": [
        {
          "name": "",
          "type": "bytes32"
        }
      ],
      "name": "artisans",
      "outputs": [
        {
          "name": "name",
          "type": "bytes"
        },
        {
          "name": "addr",
          "type": "address"
        },
        {
          "name": "ssn",
          "type": "bytes"
        }
      ],
      "payable": false,
      "stateMutability": "view",
      "type": "function"
    },
    {
      "constant": true,
      "inputs": [
        {
          "name": "",
          "type": "bytes32"
        }
      ],
      "name": "products",
      "outputs": [
        {
          "name": "artisanId",
          "type": "bytes32"
        },
        {
          "name": "listedDate",
          "type": "uint256"
        },
        {
          "name": "soldDate",
          "type": "uint256"
        },
        {
          "name": "compellingStoryUri",
          "type": "bytes"
        },
        {
          "name": "userStory",
          "type": "bytes"
        },
        {
          "name": "owner",
          "type": "address"
        }
      ],
      "payable": false,
      "stateMutability": "view",
      "type": "function"
    },
    {
      "constant": true,
      "inputs": [],
      "name": "owner",
      "outputs": [
        {
          "name": "",
          "type": "address"
        }
      ],
      "payable": false,
      "stateMutability": "view",
      "type": "function"
    },
    {
      "constant": false,
      "inputs": [
        {
          "name": "newOwner",
          "type": "address"
        }
      ],
      "name": "transferOwnership",
      "outputs": [],
      "payable": false,
      "stateMutability": "nonpayable",
      "type": "function"
    },
    {
      "anonymous": false,
      "inputs": [
        {
          "indexed": false,
          "name": "_id",
          "type": "bytes32"
        },
        {
          "indexed": false,
          "name": "_name",
          "type": "bytes"
        },
        {
          "indexed": false,
          "name": "_addr",
          "type": "address"
        },
        {
          "indexed": false,
          "name": "_ssn",
          "type": "bytes"
        }
      ],
      "name": "IssuerCertificate",
      "type": "event"
    },
    {
      "anonymous": false,
      "inputs": [
        {
          "indexed": false,
          "name": "_id",
          "type": "bytes32"
        },
        {
          "indexed": false,
          "name": "_artisanId",
          "type": "bytes32"
        },
        {
          "indexed": false,
          "name": "_listedDate",
          "type": "uint256"
        },
        {
          "indexed": false,
          "name": "_cStory",
          "type": "bytes"
        }
      ],
      "name": "CreateProduct",
      "type": "event"
    },
    {
      "anonymous": false,
      "inputs": [
        {
          "indexed": false,
          "name": "_id",
          "type": "bytes32"
        },
        {
          "indexed": false,
          "name": "buyer",
          "type": "address"
        },
        {
          "indexed": false,
          "name": "_soldDate",
          "type": "uint256"
        }
      ],
      "name": "BuyProduct",
      "type": "event"
    },
    {
      "anonymous": false,
      "inputs": [
        {
          "indexed": false,
          "name": "UserStory",
          "type": "bytes"
        }
      ],
      "name": "UserStoryAdded",
      "type": "event"
    },
    {
      "anonymous": false,
      "inputs": [
        {
          "indexed": true,
          "name": "previousOwner",
          "type": "address"
        },
        {
          "indexed": true,
          "name": "newOwner",
          "type": "address"
        }
      ],
      "name": "OwnershipTransferred",
      "type": "event"
    },
    {
      "constant": false,
      "inputs": [
        {
          "name": "_id",
          "type": "bytes32"
        },
        {
          "name": "_name",
          "type": "bytes"
        },
        {
          "name": "_addr",
          "type": "address"
        },
        {
          "name": "_ssn",
          "type": "bytes"
        }
      ],
      "name": "issuerCertificate",
      "outputs": [
        {
          "name": "",
          "type": "bool"
        }
      ],
      "payable": false,
      "stateMutability": "nonpayable",
      "type": "function"
    },
    {
      "constant": false,
      "inputs": [
        {
          "name": "_id",
          "type": "bytes32"
        },
        {
          "name": "_artisanId",
          "type": "bytes32"
        },
        {
          "name": "_cStory",
          "type": "bytes"
        }
      ],
      "name": "listProduct",
      "outputs": [
        {
          "name": "",
          "type": "bool"
        }
      ],
      "payable": false,
      "stateMutability": "nonpayable",
      "type": "function"
    },
    {
      "constant": false,
      "inputs": [
        {
          "name": "_id",
          "type": "bytes32"
        },
        {
          "name": "_userStory",
          "type": "bytes"
        }
      ],
      "name": "buyProduct",
      "outputs": [
        {
          "name": "",
          "type": "bool"
        }
      ],
      "payable": false,
      "stateMutability": "nonpayable",
      "type": "function"
    },
    {
      "constant": true,
      "inputs": [
        {
          "name": "_artisanId",
          "type": "bytes32"
        }
      ],
      "name": "getProductCount",
      "outputs": [
        {
          "name": "",
          "type": "uint256"
        }
      ],
      "payable": false,
      "stateMutability": "view",
      "type": "function"
    },
    {
      "constant": true,
      "inputs": [
        {
          "name": "_artisanId",
          "type": "bytes32"
        }
      ],
      "name": "getProductList",
      "outputs": [
        {
          "name": "",
          "type": "bytes32[]"
        }
      ],
      "payable": false,
      "stateMutability": "view",
      "type": "function"
    }
  ],
  "bytecode": "0x6080604052336000806101000a81548173ffffffffffffffffffffffffffffffffffffffff021916908373ffffffffffffffffffffffffffffffffffffffff1602179055506117b2806100536000396000f300608060405260043610610099576000357c0100000000000000000000000000000000000000000000000000000000900463ffffffff16806336a496051461009e57806343cadb07146101245780635ff434eb1461016957806379054391146102b25780638da5cb5b146104185780639bdbc22d1461046f578063cc2373821461050c578063ed6c46061461059b578063f2fde38b14610690575b600080fd5b3480156100aa57600080fd5b506100cd60048036038101908080356000191690602001909291905050506106d3565b6040518080602001828103825283818151815260200191508051906020019060200280838360005b838110156101105780820151818401526020810190506100f5565b505050509050019250505060405180910390f35b34801561013057600080fd5b50610153600480360381019080803560001916906020019092919050505061074d565b6040518082815260200191505060405180910390f35b34801561017557600080fd5b506101986004803603810190808035600019169060200190929190505050610778565b60405180806020018473ffffffffffffffffffffffffffffffffffffffff1673ffffffffffffffffffffffffffffffffffffffff16815260200180602001838103835286818151815260200191508051906020019080838360005b8381101561020e5780820151818401526020810190506101f3565b50505050905090810190601f16801561023b5780820380516001836020036101000a031916815260200191505b50838103825284818151815260200191508051906020019080838360005b83811015610274578082015181840152602081019050610259565b50505050905090810190601f1680156102a15780820380516001836020036101000a031916815260200191505b509550505050505060405180910390f35b3480156102be57600080fd5b506102e160048036038101908080356000191690602001909291905050506108f2565b60405180876000191660001916815260200186815260200185815260200180602001806020018473ffffffffffffffffffffffffffffffffffffffff1673ffffffffffffffffffffffffffffffffffffffff168152602001838103835286818151815260200191508051906020019080838360005b83811015610371578082015181840152602081019050610356565b50505050905090810190601f16801561039e5780820380516001836020036101000a031916815260200191505b50838103825285818151815260200191508051906020019080838360005b838110156103d75780820151818401526020810190506103bc565b50505050905090810190601f1680156104045780820380516001836020036101000a031916815260200191505b509850505050505050505060405180910390f35b34801561042457600080fd5b5061042d610a7e565b604051808273ffffffffffffffffffffffffffffffffffffffff1673ffffffffffffffffffffffffffffffffffffffff16815260200191505060405180910390f35b34801561047b57600080fd5b506104f260048036038101908080356000191690602001909291908035600019169060200190929190803590602001908201803590602001908080601f0160208091040260200160405190810160405280939291908181526020018383808284378201915050505050509192919290505050610aa3565b604051808215151515815260200191505060405180910390f35b34801561051857600080fd5b506105816004803603810190808035600019169060200190929190803590602001908201803590602001908080601f0160208091040260200160405190810160405280939291908181526020018383808284378201915050505050509192919290505050610db8565b604051808215151515815260200191505060405180910390f35b3480156105a757600080fd5b506106766004803603810190808035600019169060200190929190803590602001908201803590602001908080601f0160208091040260200160405190810160405280939291908181526020018383808284378201915050505050509192919290803573ffffffffffffffffffffffffffffffffffffffff169060200190929190803590602001908201803590602001908080601f016020809104026020016040519081016040528093929190818152602001838380828437820191505050505050919291929050505061103b565b604051808215151515815260200191505060405180910390f35b34801561069c57600080fd5b506106d1600480360381019080803573ffffffffffffffffffffffffffffffffffffffff169060200190929190505050611405565b005b606060016000836000191660001916815260200190815260200160002060030180548060200260200160405190810160405280929190818152602001828054801561074157602002820191906000526020600020905b81546000191681526020019060010190808311610729575b50505050509050919050565b6000600160008360001916600019168152602001908152602001600020600301805490509050919050565b6001602052806000526040600020600091509050806000018054600181600116156101000203166002900480601f0160208091040260200160405190810160405280929190818152602001828054600181600116156101000203166002900480156108245780601f106107f957610100808354040283529160200191610824565b820191906000526020600020905b81548152906001019060200180831161080757829003601f168201915b5050505050908060010160009054906101000a900473ffffffffffffffffffffffffffffffffffffffff1690806002018054600181600116156101000203166002900480601f0160208091040260200160405190810160405280929190818152602001828054600181600116156101000203166002900480156108e85780601f106108bd576101008083540402835291602001916108e8565b820191906000526020600020905b8154815290600101906020018083116108cb57829003601f168201915b5050505050905083565b6002602052806000526040600020600091509050806000015490806001015490806002015490806003018054600181600116156101000203166002900480601f0160208091040260200160405190810160405280929190818152602001828054600181600116156101000203166002900480156109b05780601f10610985576101008083540402835291602001916109b0565b820191906000526020600020905b81548152906001019060200180831161099357829003601f168201915b505050505090806004018054600181600116156101000203166002900480601f016020809104026020016040519081016040528092919081815260200182805460018160011615610100020316600290048015610a4e5780601f10610a2357610100808354040283529160200191610a4e565b820191906000526020600020905b815481529060010190602001808311610a3157829003601f168201915b5050505050908060050160009054906101000a900473ffffffffffffffffffffffffffffffffffffffff16905086565b6000809054906101000a900473ffffffffffffffffffffffffffffffffffffffff1681565b6000610aad61155a565b6000809054906101000a900473ffffffffffffffffffffffffffffffffffffffff1673ffffffffffffffffffffffffffffffffffffffff163373ffffffffffffffffffffffffffffffffffffffff16141515610b0857600080fd5b600073ffffffffffffffffffffffffffffffffffffffff1660016000866000191660001916815260200190815260200160002060010160009054906101000a900473ffffffffffffffffffffffffffffffffffffffff1673ffffffffffffffffffffffffffffffffffffffff1614151515610b8257600080fd5b600060026000876000191660001916815260200190815260200160002060010154141515610baf57600080fd5b838160000190600019169081600019168152505042816020018181525050828160600181905250806002600087600019166000191681526020019081526020016000206000820151816000019060001916905560208201518160010155604082015181600201556060820151816003019080519060200190610c329291906115aa565b506080820151816004019080519060200190610c4f9291906115aa565b5060a08201518160050160006101000a81548173ffffffffffffffffffffffffffffffffffffffff021916908373ffffffffffffffffffffffffffffffffffffffff1602179055509050506001600085600019166000191681526020019081526020016000206003018590806001815401808255809150509060018203906000526020600020016000909192909190915090600019169055507f4da5e12027c3a4fee969fb17ff02a4766d7cb807a9aa3a948da3dbee4ecde5ce85854286604051808560001916600019168152602001846000191660001916815260200183815260200180602001828103825283818151815260200191508051906020019080838360005b83811015610d6f578082015181840152602081019050610d54565b50505050905090810190601f168015610d9c5780820380516001836020036101000a031916815260200191505b509550505050505060405180910390a160019150509392505050565b60008073ffffffffffffffffffffffffffffffffffffffff1660026000856000191660001916815260200190815260200160002060050160009054906101000a900473ffffffffffffffffffffffffffffffffffffffff1673ffffffffffffffffffffffffffffffffffffffff16141515610e3257600080fd5b6000600102600260008560001916600019168152602001908152602001600020600001546000191614151515610e6757600080fd5b3360026000856000191660001916815260200190815260200160002060050160006101000a81548173ffffffffffffffffffffffffffffffffffffffff021916908373ffffffffffffffffffffffffffffffffffffffff1602179055504260026000856000191660001916815260200190815260200160002060020181905550816002600085600019166000191681526020019081526020016000206004019080519060200190610f1992919061162a565b507f85539c7d87472debaeb8044f5dfd8b280fe37bf22c2c3742ccd8260861a256318333426040518084600019166000191681526020018373ffffffffffffffffffffffffffffffffffffffff1673ffffffffffffffffffffffffffffffffffffffff168152602001828152602001935050505060405180910390a17fc8a7c059044e0bd4f9575d881111b52e034d6a0ddcf73447a254c85dbd90e395826040518080602001828103825283818151815260200191508051906020019080838360005b83811015610ff7578082015181840152602081019050610fdc565b50505050905090810190601f1680156110245780820380516001836020036101000a031916815260200191505b509250505060405180910390a16001905092915050565b60006110456116aa565b6000809054906101000a900473ffffffffffffffffffffffffffffffffffffffff1673ffffffffffffffffffffffffffffffffffffffff163373ffffffffffffffffffffffffffffffffffffffff161415156110a057600080fd5b600073ffffffffffffffffffffffffffffffffffffffff1660016000886000191660001916815260200190815260200160002060010160009054906101000a900473ffffffffffffffffffffffffffffffffffffffff1673ffffffffffffffffffffffffffffffffffffffff1614151561111957600080fd5b60806040519081016040528060206040519081016040528060008152508152602001600073ffffffffffffffffffffffffffffffffffffffff16815260200160206040519081016040528060008152508152602001600060405190808252806020026020018201604052801561119e5781602001602082028038833980820191505090505b50815250905084816000018190525083816020019073ffffffffffffffffffffffffffffffffffffffff16908173ffffffffffffffffffffffffffffffffffffffff16815250508281604001819052508060016000886000191660001916815260200190815260200160002060008201518160000190805190602001906112269291906115aa565b5060208201518160010160006101000a81548173ffffffffffffffffffffffffffffffffffffffff021916908373ffffffffffffffffffffffffffffffffffffffff160217905550604082015181600201908051906020019061128a9291906115aa565b5060608201518160030190805190602001906112a79291906116e9565b509050507f23ecb0caac0f425c10c013c60e5be5be4755b8f1ab5e733e642bff129de167ee86868686604051808560001916600019168152602001806020018473ffffffffffffffffffffffffffffffffffffffff1673ffffffffffffffffffffffffffffffffffffffff16815260200180602001838103835286818151815260200191508051906020019080838360005b83811015611354578082015181840152602081019050611339565b50505050905090810190601f1680156113815780820380516001836020036101000a031916815260200191505b50838103825284818151815260200191508051906020019080838360005b838110156113ba57808201518184015260208101905061139f565b50505050905090810190601f1680156113e75780820380516001836020036101000a031916815260200191505b50965050505050505060405180910390a16001915050949350505050565b6000809054906101000a900473ffffffffffffffffffffffffffffffffffffffff1673ffffffffffffffffffffffffffffffffffffffff163373ffffffffffffffffffffffffffffffffffffffff1614151561146057600080fd5b600073ffffffffffffffffffffffffffffffffffffffff168173ffffffffffffffffffffffffffffffffffffffff161415151561149c57600080fd5b8073ffffffffffffffffffffffffffffffffffffffff166000809054906101000a900473ffffffffffffffffffffffffffffffffffffffff1673ffffffffffffffffffffffffffffffffffffffff167f8be0079c531659141344cd1fd0a4f28419497f9722a3daafe3b4186f6b6457e060405160405180910390a3806000806101000a81548173ffffffffffffffffffffffffffffffffffffffff021916908373ffffffffffffffffffffffffffffffffffffffff16021790555050565b60c0604051908101604052806000801916815260200160008152602001600081526020016060815260200160608152602001600073ffffffffffffffffffffffffffffffffffffffff1681525090565b828054600181600116156101000203166002900490600052602060002090601f016020900481019282601f106115eb57805160ff1916838001178555611619565b82800160010185558215611619579182015b828111156116185782518255916020019190600101906115fd565b5b509050611626919061173c565b5090565b828054600181600116156101000203166002900490600052602060002090601f016020900481019282601f1061166b57805160ff1916838001178555611699565b82800160010185558215611699579182015b8281111561169857825182559160200191906001019061167d565b5b5090506116a6919061173c565b5090565b60806040519081016040528060608152602001600073ffffffffffffffffffffffffffffffffffffffff16815260200160608152602001606081525090565b82805482825590600052602060002090810192821561172b579160200282015b8281111561172a578251829060001916905591602001919060010190611709565b5b5090506117389190611761565b5090565b61175e91905b8082111561175a576000816000905550600101611742565b5090565b90565b61178391905b8082111561177f576000816000905550600101611767565b5090565b905600a165627a7a723058203b0ee342187277126048e41b2148817b60fe98f85d5e5eea897e13ba4e2c331e0029",
  "source": "pragma solidity ^0.4.18;\nimport 'zeppelin-solidity/contracts/ownership/Ownable.sol';\n\ncontract UniCraft is Ownable{\n    struct Certificate\n    {\n        bytes name;\n        address addr;\n        bytes ssn;\n        bytes32[] productIds;\n    }\n    // mapping artisanID -> artisan\n    mapping (bytes32 => Certificate) public artisans;\n    struct Product\n    {\n        bytes32 artisanId;\n        uint256 listedDate;\n        uint256 soldDate;\n        bytes compellingStoryUri;\n        bytes userStory;\n        address owner;\n    }\n    mapping (bytes32 => Product) public products;\n    \n    event IssuerCertificate(bytes32 _id, bytes _name, address _addr, bytes _ssn);\n    event CreateProduct(bytes32 _id, bytes32 _artisanId, uint256 _listedDate, bytes _cStory);\n    event BuyProduct(bytes32 _id, address buyer, uint256 _soldDate);\n    event UserStoryAdded(bytes UserStory);\n    /*\n    * @dev issue certificate for the artisan, this function throw EXCEPTION when artisanId is exist\n    * @param artisanId, artisan name, artisan ethereum address, artisan ssn\n    * @retun true if success in issue certificate for the artisan otherwise return false\n     */\n    function issuerCertificate(bytes32 _id, bytes _name, address _addr, bytes _ssn)\n    public\n    onlyOwner\n    returns (bool)\n    {\n        require(artisans[_id].addr == address(0x0));\n        Certificate memory certificate = Certificate(\"\",address(0x0),\"\",new bytes32[](0));\n        certificate.name = _name;\n        certificate.addr = _addr;\n        certificate.ssn = _ssn;\n        artisans[_id] = certificate;\n        emit IssuerCertificate(_id, _name, _addr, _ssn);\n        return true;\n    }\n    /*\n    * @dev list the product in Blockchain before listing on Ecomerce platform \n    * @param product Id, artisan Id (the maker of product), compelling story attached to that product\n    * @retun true if success in listing product otherwise return false\n     */\n    function listProduct(bytes32 _id, bytes32 _artisanId, bytes _cStory)\n    public\n    onlyOwner\n    returns (bool)\n    {\n        require(artisans[_artisanId].addr != address(0x0));\n        require(products[_id].listedDate == 0);\n        Product memory product;\n        product.artisanId = _artisanId;\n        product.listedDate = now;\n        product.compellingStoryUri = _cStory;\n        //product.status = 0;\n        products[_id] = product;\n        artisans[_artisanId].productIds.push(_id);\n        emit CreateProduct(_id, _artisanId, now, _cStory);\n        return true;\n    }\n    /*\n    * @dev add story and owner of product when someone invoke buying feature,\n    allow user to add their own story to the product as a gift or memory\n    * @param product Id, userStory in bytes\n    * @retun true if success in buying and otherwise false\n     */\n    function buyProduct(bytes32 _id, bytes _userStory)\n    public\n    returns (bool)\n    {\n        require(products[_id].owner == address(0x0));\n        require(products[_id].artisanId != 0);\n        products[_id].owner = msg.sender;\n        products[_id].soldDate = now;\n        products[_id].userStory = _userStory;\n        emit BuyProduct(_id, msg.sender, now);\n        emit UserStoryAdded(_userStory);\n        return true;\n    }\n    /*\n    * @dev count the total product an artisan have made\n    * @param artisan ID\n    * @retun number of total product\n    */\n    function getProductCount(bytes32 _artisanId)\n    public\n    view\n    returns (uint256)\n    {\n        return artisans[_artisanId].productIds.length;\n    }\n    /*\n    * @dev list all products Id an artisan have made\n    * @param artisan ID\n    * @retun the list of product ids\n    */\n    function getProductList(bytes32 _artisanId)\n    public\n    view\n    returns (bytes32[])\n    {\n        return artisans[_artisanId].productIds;\n    }\n}",
  "sourcePath": "/Users/hungngo/Documents/Blockchain/IBL/Project/Hackathon/Apec2018/apec-app-challenge-2018/contracts/UniCraft.sol",
  "compiler": {
    "name": "solc",
    "version": "0.4.23+commit.124ca40d.Emscripten.clang"
  },
  "schemaVersion": "2.0.0",
  "updatedAt": "2018-05-23T01:11:32.131Z"
}